{
  "contractName": "Lottery",
  "abi": [
    {
      "inputs": [
        {
          "internalType": "address",
          "name": "_priceFeedAddress",
          "type": "address"
        },
        {
          "internalType": "address",
          "name": "_vrfCoordinator",
          "type": "address"
        },
        {
          "internalType": "address",
          "name": "_link",
          "type": "address"
        },
        {
          "internalType": "uint256",
          "name": "_fee",
          "type": "uint256"
        },
        {
          "internalType": "bytes32",
          "name": "_keyhash",
          "type": "bytes32"
        }
      ],
      "stateMutability": "nonpayable",
      "type": "constructor"
    },
    {
      "anonymous": false,
      "inputs": [
        {
          "indexed": true,
          "internalType": "address",
          "name": "previousOwner",
          "type": "address"
        },
        {
          "indexed": true,
          "internalType": "address",
          "name": "newOwner",
          "type": "address"
        }
      ],
      "name": "OwnershipTransferred",
      "type": "event"
    },
    {
      "anonymous": false,
      "inputs": [
        {
          "indexed": false,
          "internalType": "bytes32",
          "name": "requestId",
          "type": "bytes32"
        }
      ],
      "name": "RequestedRandomness",
      "type": "event"
    },
    {
      "inputs": [],
      "name": "fee",
      "outputs": [
        {
          "internalType": "uint256",
          "name": "",
          "type": "uint256"
        }
      ],
      "stateMutability": "view",
      "type": "function"
    },
    {
      "inputs": [],
      "name": "keyhash",
      "outputs": [
        {
          "internalType": "bytes32",
          "name": "",
          "type": "bytes32"
        }
      ],
      "stateMutability": "view",
      "type": "function"
    },
    {
      "inputs": [],
      "name": "lottery_state",
      "outputs": [
        {
          "internalType": "enum Lottery.LOTTERY_STATE",
          "name": "",
          "type": "uint8"
        }
      ],
      "stateMutability": "view",
      "type": "function"
    },
    {
      "inputs": [],
      "name": "owner",
      "outputs": [
        {
          "internalType": "address",
          "name": "",
          "type": "address"
        }
      ],
      "stateMutability": "view",
      "type": "function"
    },
    {
      "inputs": [
        {
          "internalType": "uint256",
          "name": "",
          "type": "uint256"
        }
      ],
      "name": "players",
      "outputs": [
        {
          "internalType": "address payable",
          "name": "",
          "type": "address"
        }
      ],
      "stateMutability": "view",
      "type": "function"
    },
    {
      "inputs": [],
      "name": "randomness",
      "outputs": [
        {
          "internalType": "uint256",
          "name": "",
          "type": "uint256"
        }
      ],
      "stateMutability": "view",
      "type": "function"
    },
    {
      "inputs": [
        {
          "internalType": "bytes32",
          "name": "requestId",
          "type": "bytes32"
        },
        {
          "internalType": "uint256",
          "name": "randomness",
          "type": "uint256"
        }
      ],
      "name": "rawFulfillRandomness",
      "outputs": [],
      "stateMutability": "nonpayable",
      "type": "function"
    },
    {
      "inputs": [],
      "name": "recentWinner",
      "outputs": [
        {
          "internalType": "address payable",
          "name": "",
          "type": "address"
        }
      ],
      "stateMutability": "view",
      "type": "function"
    },
    {
      "inputs": [],
      "name": "renounceOwnership",
      "outputs": [],
      "stateMutability": "nonpayable",
      "type": "function"
    },
    {
      "inputs": [
        {
          "internalType": "address",
          "name": "newOwner",
          "type": "address"
        }
      ],
      "name": "transferOwnership",
      "outputs": [],
      "stateMutability": "nonpayable",
      "type": "function"
    },
    {
      "inputs": [],
      "name": "usdEntryFee",
      "outputs": [
        {
          "internalType": "uint256",
          "name": "",
          "type": "uint256"
        }
      ],
      "stateMutability": "view",
      "type": "function"
    },
    {
      "inputs": [],
      "name": "enter",
      "outputs": [],
      "stateMutability": "payable",
      "type": "function"
    },
    {
      "inputs": [],
      "name": "getEntranceFee",
      "outputs": [
        {
          "internalType": "uint256",
          "name": "",
          "type": "uint256"
        }
      ],
      "stateMutability": "view",
      "type": "function"
    },
    {
      "inputs": [],
      "name": "startLottery",
      "outputs": [],
      "stateMutability": "nonpayable",
      "type": "function"
    },
    {
      "inputs": [],
      "name": "endLottery",
      "outputs": [],
      "stateMutability": "nonpayable",
      "type": "function"
    }
  ],
  "bytecode": "0x60c06040523480156200001157600080fd5b5060405162001cca38038062001cca833981810160405281019062000037919062000309565b83838173ffffffffffffffffffffffffffffffffffffffff1660a08173ffffffffffffffffffffffffffffffffffffffff16815250508073ffffffffffffffffffffffffffffffffffffffff1660808173ffffffffffffffffffffffffffffffffffffffff16815250505050620000c3620000b76200015b60201b60201c565b6200016360201b60201c565b6802b5e3af16b188000060058190555084600660006101000a81548173ffffffffffffffffffffffffffffffffffffffff021916908373ffffffffffffffffffffffffffffffffffffffff1602179055506001600660146101000a81548160ff021916908360028111156200013d576200013c62000391565b5b021790555081600781905550806008819055505050505050620003c0565b600033905090565b6000600160009054906101000a900473ffffffffffffffffffffffffffffffffffffffff16905081600160006101000a81548173ffffffffffffffffffffffffffffffffffffffff021916908373ffffffffffffffffffffffffffffffffffffffff1602179055508173ffffffffffffffffffffffffffffffffffffffff168173ffffffffffffffffffffffffffffffffffffffff167f8be0079c531659141344cd1fd0a4f28419497f9722a3daafe3b4186f6b6457e060405160405180910390a35050565b600080fd5b600073ffffffffffffffffffffffffffffffffffffffff82169050919050565b60006200025b826200022e565b9050919050565b6200026d816200024e565b81146200027957600080fd5b50565b6000815190506200028d8162000262565b92915050565b6000819050919050565b620002a88162000293565b8114620002b457600080fd5b50565b600081519050620002c8816200029d565b92915050565b6000819050919050565b620002e381620002ce565b8114620002ef57600080fd5b50565b6000815190506200030381620002d8565b92915050565b600080600080600060a0868803121562000328576200032762000229565b5b600062000338888289016200027c565b95505060206200034b888289016200027c565b94505060406200035e888289016200027c565b93505060606200037188828901620002b7565b92505060806200038488828901620002f2565b9150509295509295909350565b7f4e487b7100000000000000000000000000000000000000000000000000000000600052602160045260246000fd5b60805160a0516118dd620003ed600039600081816105b501526108c40152600061088801526118dd6000f3fe6080604052600436106100e85760003560e01c8063814479991161008a578063ddca3f4311610059578063ddca3f4314610288578063e97dcb62146102b3578063f2fde38b146102bd578063f71d96cb146102e6576100e8565b806381447999146101de57806388ab139a146102095780638da5cb5b1461023457806394985ddd1461025f576100e8565b806336013189116100c657806336013189146101465780634f8c70cf1461017157806369ebe78e1461019c578063715018a6146101c7576100e8565b806309bc33a7146100ed5780631593a8c714610118578063160344e21461012f575b600080fd5b3480156100f957600080fd5b50610102610323565b60405161010f9190610e1d565b60405180910390f35b34801561012457600080fd5b5061012d610400565b005b34801561013b57600080fd5b5061014461047f565b005b34801561015257600080fd5b5061015b61052a565b6040516101689190610e1d565b60405180910390f35b34801561017d57600080fd5b50610186610530565b6040516101939190610e79565b60405180910390f35b3480156101a857600080fd5b506101b1610556565b6040516101be9190610ead565b60405180910390f35b3480156101d357600080fd5b506101dc61055c565b005b3480156101ea57600080fd5b506101f3610570565b6040516102009190610f3f565b60405180910390f35b34801561021557600080fd5b5061021e610583565b60405161022b9190610e1d565b60405180910390f35b34801561024057600080fd5b50610249610589565b6040516102569190610f7b565b60405180910390f35b34801561026b57600080fd5b5061028660048036038101906102819190610ff3565b6105b3565b005b34801561029457600080fd5b5061029d61064f565b6040516102aa9190610e1d565b60405180910390f35b6102bb610655565b005b3480156102c957600080fd5b506102e460048036038101906102df919061105f565b610744565b005b3480156102f257600080fd5b5061030d6004803603810190610308919061108c565b6107c7565b60405161031a9190610e79565b60405180910390f35b600080600660009054906101000a900473ffffffffffffffffffffffffffffffffffffffff1673ffffffffffffffffffffffffffffffffffffffff1663feaf968c6040518163ffffffff1660e01b815260040160a060405180830381865afa158015610393573d6000803e3d6000fd5b505050506040513d601f19601f820116820180604052508101906103b79190611146565b50505091505060006402540be400826103d091906111f0565b9050600081670de0b6b3a76400006005546103eb91906111f0565b6103f59190611279565b905080935050505090565b610408610806565b6002600660146101000a81548160ff0219169083600281111561042e5761042d610ec8565b5b02179055506000610443600854600754610884565b90507fe5f5b44d72d4143c278eb745c4acc0695c4a5bc616be5beecf46abe29661780e816040516104749190610ead565b60405180910390a150565b610487610806565b6001600281111561049b5761049a610ec8565b5b600660149054906101000a900460ff1660028111156104bd576104bc610ec8565b5b146104fd576040517f08c379a00000000000000000000000000000000000000000000000000000000081526004016104f490611307565b60405180910390fd5b6000600660146101000a81548160ff0219169083600281111561052357610522610ec8565b5b0217905550565b60045481565b600360009054906101000a900473ffffffffffffffffffffffffffffffffffffffff1681565b60085481565b610564610806565b61056e60006109d4565b565b600660149054906101000a900460ff1681565b60055481565b6000600160009054906101000a900473ffffffffffffffffffffffffffffffffffffffff16905090565b7f000000000000000000000000000000000000000000000000000000000000000073ffffffffffffffffffffffffffffffffffffffff163373ffffffffffffffffffffffffffffffffffffffff1614610641576040517f08c379a000000000000000000000000000000000000000000000000000000000815260040161063890611373565b60405180910390fd5b61064b8282610a9a565b5050565b60075481565b6000600281111561066957610668610ec8565b5b600660149054906101000a900460ff16600281111561068b5761068a610ec8565b5b1461069557600080fd5b61069d610323565b3410156106df576040517f08c379a00000000000000000000000000000000000000000000000000000000081526004016106d6906113df565b60405180910390fd5b6002339080600181540180825580915050600190039060005260206000200160009091909190916101000a81548173ffffffffffffffffffffffffffffffffffffffff021916908373ffffffffffffffffffffffffffffffffffffffff160217905550565b61074c610806565b600073ffffffffffffffffffffffffffffffffffffffff168173ffffffffffffffffffffffffffffffffffffffff16036107bb576040517f08c379a00000000000000000000000000000000000000000000000000000000081526004016107b290611471565b60405180910390fd5b6107c4816109d4565b50565b600281815481106107d757600080fd5b906000526020600020016000915054906101000a900473ffffffffffffffffffffffffffffffffffffffff1681565b61080e610ce6565b73ffffffffffffffffffffffffffffffffffffffff1661082c610589565b73ffffffffffffffffffffffffffffffffffffffff1614610882576040517f08c379a0000000000000000000000000000000000000000000000000000000008152600401610879906114dd565b60405180910390fd5b565b60007f000000000000000000000000000000000000000000000000000000000000000073ffffffffffffffffffffffffffffffffffffffff16634000aea07f0000000000000000000000000000000000000000000000000000000000000000848660006040516020016108f89291906114fd565b6040516020818303038152906040526040518463ffffffff1660e01b8152600401610925939291906115b6565b6020604051808303816000875af1158015610944573d6000803e3d6000fd5b505050506040513d601f19601f82011682018060405250810190610968919061162c565b50600061098a8460003060008089815260200190815260200160002054610cee565b90506001600080868152602001908152602001600020546109ab9190611659565b600080868152602001908152602001600020819055506109cb8482610d2a565b91505092915050565b6000600160009054906101000a900473ffffffffffffffffffffffffffffffffffffffff16905081600160006101000a81548173ffffffffffffffffffffffffffffffffffffffff021916908373ffffffffffffffffffffffffffffffffffffffff1602179055508173ffffffffffffffffffffffffffffffffffffffff168173ffffffffffffffffffffffffffffffffffffffff167f8be0079c531659141344cd1fd0a4f28419497f9722a3daafe3b4186f6b6457e060405160405180910390a35050565b600280811115610aad57610aac610ec8565b5b600660149054906101000a900460ff166002811115610acf57610ace610ec8565b5b14610b0f576040517f08c379a0000000000000000000000000000000000000000000000000000000008152600401610b06906116d9565b60405180910390fd5b60008111610b52576040517f08c379a0000000000000000000000000000000000000000000000000000000008152600401610b4990611745565b60405180910390fd5b600060028054905082610b659190611765565b905060028181548110610b7b57610b7a611796565b5b9060005260206000200160009054906101000a900473ffffffffffffffffffffffffffffffffffffffff16600360006101000a81548173ffffffffffffffffffffffffffffffffffffffff021916908373ffffffffffffffffffffffffffffffffffffffff160217905550600360009054906101000a900473ffffffffffffffffffffffffffffffffffffffff1673ffffffffffffffffffffffffffffffffffffffff166108fc479081150290604051600060405180830381858888f19350505050158015610c4e573d6000803e3d6000fd5b50600067ffffffffffffffff811115610c6a57610c696117c5565b5b604051908082528060200260200182016040528015610c985781602001602082028036833780820191505090505b5060029080519060200190610cae929190610d5d565b506001600660146101000a81548160ff02191690836002811115610cd557610cd4610ec8565b5b021790555081600481905550505050565b600033905090565b600084848484604051602001610d0794939291906117f4565b6040516020818303038152906040528051906020012060001c9050949350505050565b60008282604051602001610d3f92919061187b565b60405160208183030381529060405280519060200120905092915050565b828054828255906000526020600020908101928215610dd6579160200282015b82811115610dd55782518260006101000a81548173ffffffffffffffffffffffffffffffffffffffff021916908373ffffffffffffffffffffffffffffffffffffffff16021790555091602001919060010190610d7d565b5b509050610de39190610de7565b5090565b5b80821115610e00576000816000905550600101610de8565b5090565b6000819050919050565b610e1781610e04565b82525050565b6000602082019050610e326000830184610e0e565b92915050565b600073ffffffffffffffffffffffffffffffffffffffff82169050919050565b6000610e6382610e38565b9050919050565b610e7381610e58565b82525050565b6000602082019050610e8e6000830184610e6a565b92915050565b6000819050919050565b610ea781610e94565b82525050565b6000602082019050610ec26000830184610e9e565b92915050565b7f4e487b7100000000000000000000000000000000000000000000000000000000600052602160045260246000fd5b60038110610f0857610f07610ec8565b5b50565b6000819050610f1982610ef7565b919050565b6000610f2982610f0b565b9050919050565b610f3981610f1e565b82525050565b6000602082019050610f546000830184610f30565b92915050565b6000610f6582610e38565b9050919050565b610f7581610f5a565b82525050565b6000602082019050610f906000830184610f6c565b92915050565b600080fd5b610fa481610e94565b8114610faf57600080fd5b50565b600081359050610fc181610f9b565b92915050565b610fd081610e04565b8114610fdb57600080fd5b50565b600081359050610fed81610fc7565b92915050565b6000806040838503121561100a57611009610f96565b5b600061101885828601610fb2565b925050602061102985828601610fde565b9150509250929050565b61103c81610f5a565b811461104757600080fd5b50565b60008135905061105981611033565b92915050565b60006020828403121561107557611074610f96565b5b60006110838482850161104a565b91505092915050565b6000602082840312156110a2576110a1610f96565b5b60006110b084828501610fde565b91505092915050565b600069ffffffffffffffffffff82169050919050565b6110d8816110b9565b81146110e357600080fd5b50565b6000815190506110f5816110cf565b92915050565b6000819050919050565b61110e816110fb565b811461111957600080fd5b50565b60008151905061112b81611105565b92915050565b60008151905061114081610fc7565b92915050565b600080600080600060a0868803121561116257611161610f96565b5b6000611170888289016110e6565b95505060206111818882890161111c565b945050604061119288828901611131565b93505060606111a388828901611131565b92505060806111b4888289016110e6565b9150509295509295909350565b7f4e487b7100000000000000000000000000000000000000000000000000000000600052601160045260246000fd5b60006111fb82610e04565b915061120683610e04565b9250817fffffffffffffffffffffffffffffffffffffffffffffffffffffffffffffffff048311821515161561123f5761123e6111c1565b5b828202905092915050565b7f4e487b7100000000000000000000000000000000000000000000000000000000600052601260045260246000fd5b600061128482610e04565b915061128f83610e04565b92508261129f5761129e61124a565b5b828204905092915050565b600082825260208201905092915050565b7f43616e27742073746172742061206e6577206c6f747465727920796574000000600082015250565b60006112f1601d836112aa565b91506112fc826112bb565b602082019050919050565b60006020820190508181036000830152611320816112e4565b9050919050565b7f4f6e6c7920565246436f6f7264696e61746f722063616e2066756c66696c6c00600082015250565b600061135d601f836112aa565b915061136882611327565b602082019050919050565b6000602082019050818103600083015261138c81611350565b9050919050565b7f796f7520646f206e6f74206861766520656e6f756768206d6f6e657900000000600082015250565b60006113c9601c836112aa565b91506113d482611393565b602082019050919050565b600060208201905081810360008301526113f8816113bc565b9050919050565b7f4f776e61626c653a206e6577206f776e657220697320746865207a65726f206160008201527f6464726573730000000000000000000000000000000000000000000000000000602082015250565b600061145b6026836112aa565b9150611466826113ff565b604082019050919050565b6000602082019050818103600083015261148a8161144e565b9050919050565b7f4f776e61626c653a2063616c6c6572206973206e6f7420746865206f776e6572600082015250565b60006114c76020836112aa565b91506114d282611491565b602082019050919050565b600060208201905081810360008301526114f6816114ba565b9050919050565b60006040820190506115126000830185610e9e565b61151f6020830184610e0e565b9392505050565b600081519050919050565b600082825260208201905092915050565b60005b83811015611560578082015181840152602081019050611545565b60008484015250505050565b6000601f19601f8301169050919050565b600061158882611526565b6115928185611531565b93506115a2818560208601611542565b6115ab8161156c565b840191505092915050565b60006060820190506115cb6000830186610f6c565b6115d86020830185610e0e565b81810360408301526115ea818461157d565b9050949350505050565b60008115159050919050565b611609816115f4565b811461161457600080fd5b50565b60008151905061162681611600565b92915050565b60006020828403121561164257611641610f96565b5b600061165084828501611617565b91505092915050565b600061166482610e04565b915061166f83610e04565b9250828201905080821115611687576116866111c1565b5b92915050565b7f596f75206172656e277420796574202100000000000000000000000000000000600082015250565b60006116c36010836112aa565b91506116ce8261168d565b602082019050919050565b600060208201905081810360008301526116f2816116b6565b9050919050565b7f72616e646f6d2d6e6f742d666f756e6400000000000000000000000000000000600082015250565b600061172f6010836112aa565b915061173a826116f9565b602082019050919050565b6000602082019050818103600083015261175e81611722565b9050919050565b600061177082610e04565b915061177b83610e04565b92508261178b5761178a61124a565b5b828206905092915050565b7f4e487b7100000000000000000000000000000000000000000000000000000000600052603260045260246000fd5b7f4e487b7100000000000000000000000000000000000000000000000000000000600052604160045260246000fd5b60006080820190506118096000830187610e9e565b6118166020830186610e0e565b6118236040830185610f6c565b6118306060830184610e0e565b95945050505050565b6000819050919050565b61185461184f82610e94565b611839565b82525050565b6000819050919050565b61187561187082610e04565b61185a565b82525050565b60006118878285611843565b6020820191506118978284611864565b602082019150819050939250505056fea264697066735822122059417c0956eb582d5dc7c939cf0db349b50c8fd03f60669086d062607dbd6f0e64736f6c63430008100033",
  "immutableReferences": {
    "73": [
      {
        "length": 32,
        "start": 2184
      }
    ],
    "75": [
      {
        "length": 32,
        "start": 1461
      },
      {
        "length": 32,
        "start": 2244
      }
    ]
  },
  "source": "// SPDX-License-Identifier: MIT\r\npragma solidity ^0.8.16;\r\n\r\nimport \"@chainlink/contracts/src/v0.8/interfaces/AggregatorV3Interface.sol\";\r\nimport \"@openzeppelin/contracts/access/Ownable.sol\";\r\nimport \"@chainlink/contracts/src/v0.8/VRFConsumerBase.sol\";\r\n\r\ncontract Lottery is VRFConsumerBase, Ownable {\r\n address payable[] public players;\r\n address payable public recentWinner;\r\n uint256 public randomness;\r\n uint256 public usdEntryFee;\r\n AggregatorV3Interface internal ethUsdPriceFeed;\r\n enum LOTTERY_STATE {\r\n  OPEN,\r\n  CLOSED,\r\n  CALCULATING_WINNER\r\n }\r\n\r\n LOTTERY_STATE public lottery_state;\r\n uint256 public fee;\r\n bytes32 public keyhash;\r\n event RequestedRandomness(bytes32 requestId);\r\n\r\n constructor(\r\n  address _priceFeedAddress,\r\n  address _vrfCoordinator,\r\n  address _link,\r\n  uint256 _fee,\r\n  bytes32 _keyhash\r\n ) public VRFConsumerBase(_vrfCoordinator, _link) {\r\n  usdEntryFee = 50 * (10**18);\r\n  ethUsdPriceFeed = AggregatorV3Interface(_priceFeedAddress);\r\n  lottery_state = LOTTERY_STATE.CLOSED;\r\n  fee = _fee;\r\n  keyhash = _keyhash;\r\n }\r\n\r\n function enter() public payable {\r\n  // $50 minimum\r\n  require(lottery_state == LOTTERY_STATE.OPEN);\r\n  require(msg.value >= getEntranceFee(), \"you do not have enough money\");\r\n  players.push(payable(msg.sender));\r\n }\r\n\r\n function getEntranceFee() public view returns (uint256) {\r\n  (, int256 price, , , ) = ethUsdPriceFeed.latestRoundData();\r\n  uint256 adjustedPrice = uint256(price) * 10**10; // 18 decimals\r\n  uint256 costToEnter = (usdEntryFee * 10**18) / adjustedPrice;\r\n  return costToEnter;\r\n }\r\n\r\n function startLottery() public onlyOwner {\r\n  require(\r\n   lottery_state == LOTTERY_STATE.CLOSED, \"Can't start a new lottery yet\"\r\n  );\r\n  lottery_state = LOTTERY_STATE.OPEN;\r\n }\r\n\r\n function endLottery() public onlyOwner {\r\n  lottery_state = LOTTERY_STATE.CALCULATING_WINNER;\r\n  bytes32 requestId = requestRandomness(keyhash, fee);\r\n  emit RequestedRandomness(requestId);\r\n }\r\n\r\n function fulfillRandomness(bytes32 _requestId, uint256 _randomness) internal override \r\n {\r\n  require(\r\n   lottery_state == LOTTERY_STATE.CALCULATING_WINNER, \"You aren't yet !\"\r\n  );\r\n  require(_randomness > 0, \"random-not-found\");\r\n  uint256 indexOfWinner = _randomness % players.length;\r\n  recentWinner = players[indexOfWinner];\r\n  recentWinner.transfer(address(this).balance); // transfer coin to the winner\r\n  // Reset\r\n  players = new address payable[](0);\r\n  lottery_state = LOTTERY_STATE.CLOSED;\r\n  randomness = _randomness;\r\n }\r\n}",
  "sourcePath": "D:\\WorkSpace\\Jobs\\MerkleTreeDemo\\contracts\\Lottery.sol",
  "compiler": {
    "name": "solc",
    "version": "0.8.16+commit.07a7930e.Emscripten.clang"
  },
  "schemaVersion": "3.4.9",
  "updatedAt": "2023-01-17T02:47:10.898Z",
  "devdoc": {
    "kind": "dev",
    "methods": {
      "owner()": {
        "details": "Returns the address of the current owner."
      },
      "renounceOwnership()": {
        "details": "Leaves the contract without owner. It will not be possible to call `onlyOwner` functions anymore. Can only be called by the current owner. NOTE: Renouncing ownership will leave the contract without an owner, thereby removing any functionality that is only available to the owner."
      },
      "transferOwnership(address)": {
        "details": "Transfers ownership of the contract to a new account (`newOwner`). Can only be called by the current owner."
      }
    },
    "version": 1
  },
  "userdoc": {
    "kind": "user",
    "methods": {},
    "version": 1
  }
}