{
  "contractName": "MerkleTree",
  "abi": [
    {
      "inputs": [
        {
          "internalType": "uint256",
          "name": "",
          "type": "uint256"
        }
      ],
      "name": "hashes",
      "outputs": [
        {
          "internalType": "bytes32",
          "name": "",
          "type": "bytes32"
        }
      ],
      "stateMutability": "view",
      "type": "function"
    },
    {
      "inputs": [
        {
          "internalType": "address[]",
          "name": "winners",
          "type": "address[]"
        }
      ],
      "name": "createTree",
      "outputs": [
        {
          "internalType": "bytes32[]",
          "name": "",
          "type": "bytes32[]"
        }
      ],
      "stateMutability": "nonpayable",
      "type": "function"
    },
    {
      "inputs": [],
      "name": "getRoot",
      "outputs": [
        {
          "internalType": "bytes32",
          "name": "",
          "type": "bytes32"
        }
      ],
      "stateMutability": "view",
      "type": "function"
    },
    {
      "inputs": [],
      "name": "getTree",
      "outputs": [
        {
          "internalType": "bytes32[]",
          "name": "",
          "type": "bytes32[]"
        }
      ],
      "stateMutability": "view",
      "type": "function"
    }
  ],
  "bytecode": "0x608060405234801561001057600080fd5b50610971806100206000396000f3fe608060405234801561001057600080fd5b506004361061004c5760003560e01c80631911d17614610051578063501895ae1461006f5780635ca1e1651461009f57806391913e72146100bd575b600080fd5b6100596100ed565b604051610066919061045a565b60405180910390f35b610089600480360381019061008491906104c6565b610145565b6040516100969190610502565b60405180910390f35b6100a7610169565b6040516100b49190610502565b60405180910390f35b6100d760048036038101906100d291906106d4565b61019f565b6040516100e4919061045a565b60405180910390f35b6060600080548060200260200160405190810160405280929190818152602001828054801561013b57602002820191906000526020600020905b815481526020019060010190808311610127575b5050505050905090565b6000818154811061015557600080fd5b906000526020600020016000915090505481565b600080600160008054905061017e919061074c565b8154811061018f5761018e610780565b5b9060005260206000200154905090565b606060005b82518110156102295760008382815181106101c2576101c1610780565b5b60200260200101516040516020016101da91906107f7565b604051602081830303815290604052805190602001209080600181540180825580915050600190039060005260206000200160009091909190915055808061022190610812565b9150506101a4565b5060008251905060005b60008211156103385760005b60018361024c919061074c565b811015610315576000808284610262919061085a565b8154811061027357610272610780565b5b906000526020600020015460006001848661028e919061085a565b610298919061085a565b815481106102a9576102a8610780565b5b90600052602060002001546040516020016102c59291906108af565b60405160208183030381529060405280519060200120908060018154018082558091505060019003906000526020600020016000909190919091505560028161030e919061085a565b905061023f565b508181610322919061085a565b9050600282610331919061090a565b9150610233565b600080548060200260200160405190810160405280929190818152602001828054801561038457602002820191906000526020600020905b815481526020019060010190808311610370575b505050505092505050919050565b600081519050919050565b600082825260208201905092915050565b6000819050602082019050919050565b6000819050919050565b6103d1816103be565b82525050565b60006103e383836103c8565b60208301905092915050565b6000602082019050919050565b600061040782610392565b610411818561039d565b935061041c836103ae565b8060005b8381101561044d57815161043488826103d7565b975061043f836103ef565b925050600181019050610420565b5085935050505092915050565b6000602082019050818103600083015261047481846103fc565b905092915050565b6000604051905090565b600080fd5b600080fd5b6000819050919050565b6104a381610490565b81146104ae57600080fd5b50565b6000813590506104c08161049a565b92915050565b6000602082840312156104dc576104db610486565b5b60006104ea848285016104b1565b91505092915050565b6104fc816103be565b82525050565b600060208201905061051760008301846104f3565b92915050565b600080fd5b6000601f19601f8301169050919050565b7f4e487b7100000000000000000000000000000000000000000000000000000000600052604160045260246000fd5b61056b82610522565b810181811067ffffffffffffffff8211171561058a57610589610533565b5b80604052505050565b600061059d61047c565b90506105a98282610562565b919050565b600067ffffffffffffffff8211156105c9576105c8610533565b5b602082029050602081019050919050565b600080fd5b600073ffffffffffffffffffffffffffffffffffffffff82169050919050565b600061060a826105df565b9050919050565b61061a816105ff565b811461062557600080fd5b50565b60008135905061063781610611565b92915050565b600061065061064b846105ae565b610593565b90508083825260208201905060208402830185811115610673576106726105da565b5b835b8181101561069c57806106888882610628565b845260208401935050602081019050610675565b5050509392505050565b600082601f8301126106bb576106ba61051d565b5b81356106cb84826020860161063d565b91505092915050565b6000602082840312156106ea576106e9610486565b5b600082013567ffffffffffffffff8111156107085761070761048b565b5b610714848285016106a6565b91505092915050565b7f4e487b7100000000000000000000000000000000000000000000000000000000600052601160045260246000fd5b600061075782610490565b915061076283610490565b925082820390508181111561077a5761077961071d565b5b92915050565b7f4e487b7100000000000000000000000000000000000000000000000000000000600052603260045260246000fd5b60008160601b9050919050565b60006107c7826107af565b9050919050565b60006107d9826107bc565b9050919050565b6107f16107ec826105ff565b6107ce565b82525050565b600061080382846107e0565b60148201915081905092915050565b600061081d82610490565b91507fffffffffffffffffffffffffffffffffffffffffffffffffffffffffffffffff820361084f5761084e61071d565b5b600182019050919050565b600061086582610490565b915061087083610490565b92508282019050808211156108885761088761071d565b5b92915050565b6000819050919050565b6108a96108a4826103be565b61088e565b82525050565b60006108bb8285610898565b6020820191506108cb8284610898565b6020820191508190509392505050565b7f4e487b7100000000000000000000000000000000000000000000000000000000600052601260045260246000fd5b600061091582610490565b915061092083610490565b9250826109305761092f6108db565b5b82820490509291505056fea2646970667358221220573fe5f127d44d27982ce129cf7c483deed56672b045353d9aff6a79b687dc2f64736f6c63430008100033",
  "immutableReferences": {},
  "source": "// SPDX-License-Identifier: MIT\r\n \r\npragma solidity ^0.8.16;\r\n\r\ncontract MerkleTree {\r\n\r\n  bytes32[] public hashes;\r\n  \r\n  function createTree(address[] memory winners) public returns (bytes32[] memory) {\r\n    for (uint i = 0; i < winners.length; i++) {\r\n      hashes.push(keccak256(abi.encodePacked(winners[i])));\r\n    }\r\n\r\n    uint n = winners.length;\r\n    uint offset = 0;\r\n\r\n    while (n > 0) {\r\n      for (uint i = 0; i < n - 1; i += 2) {\r\n        hashes.push(keccak256(abi.encodePacked(hashes[offset+i], hashes[offset+i+1])));\r\n      } \r\n\r\n      offset += n;\r\n      n = n / 2;\r\n    }\r\n\r\n    return hashes;\r\n  }\r\n\r\n    function verify(bytes32[] memory proof, bytes32 root, bytes32 leaf, uint index) internal pure returns (bool) {\r\n        bytes32 hash = leaf;\r\n        \r\n        for (uint i = 0; i < proof.length; i++) {\r\n            bytes32 proofElement = proof[i];\r\n\r\n            if (index % 2 == 0) {\r\n                hash = keccak256(abi.encodePacked(hash, proofElement));\r\n            } else {\r\n                hash = keccak256(abi.encodePacked(proofElement, hash));\r\n            }\r\n\r\n            index = index / 2;\r\n        }\r\n\r\n        return hash == root;\r\n    }\r\n\r\n  function getRoot() public view returns (bytes32) {\r\n    return hashes[hashes.length - 1];\r\n  }\r\n\r\n    function getTree() external view returns (bytes32[] memory) {\r\n      return hashes;\r\n  }\r\n}\r\n\r\n",
  "sourcePath": "D:\\WorkSpace\\Jobs\\MerkleTreeDemo\\contracts\\Merkle Tree\\MerkleTree.sol",
  "compiler": {
    "name": "solc",
    "version": "0.8.16+commit.07a7930e.Emscripten.clang"
  },
  "schemaVersion": "3.4.9",
  "updatedAt": "2023-02-06T02:22:36.710Z",
  "devdoc": {
    "kind": "dev",
    "methods": {},
    "version": 1
  },
  "userdoc": {
    "kind": "user",
    "methods": {},
    "version": 1
  }
}