{
  "contractName": "Raffle",
  "abi": [
    {
      "inputs": [],
      "stateMutability": "nonpayable",
      "type": "constructor"
    },
    {
      "anonymous": false,
      "inputs": [
        {
          "indexed": true,
          "internalType": "address",
          "name": "winner",
          "type": "address"
        }
      ],
      "name": "getWinner",
      "type": "event"
    },
    {
      "inputs": [
        {
          "internalType": "address[]",
          "name": "winners",
          "type": "address[]"
        }
      ],
      "name": "createTree",
      "outputs": [
        {
          "internalType": "bytes32[]",
          "name": "",
          "type": "bytes32[]"
        }
      ],
      "stateMutability": "nonpayable",
      "type": "function"
    },
    {
      "inputs": [],
      "name": "getRoot",
      "outputs": [
        {
          "internalType": "bytes32",
          "name": "",
          "type": "bytes32"
        }
      ],
      "stateMutability": "view",
      "type": "function"
    },
    {
      "inputs": [],
      "name": "getTree",
      "outputs": [
        {
          "internalType": "bytes32[]",
          "name": "",
          "type": "bytes32[]"
        }
      ],
      "stateMutability": "view",
      "type": "function"
    },
    {
      "inputs": [
        {
          "internalType": "uint256",
          "name": "",
          "type": "uint256"
        }
      ],
      "name": "hashes",
      "outputs": [
        {
          "internalType": "bytes32",
          "name": "",
          "type": "bytes32"
        }
      ],
      "stateMutability": "view",
      "type": "function"
    },
    {
      "inputs": [
        {
          "internalType": "uint256",
          "name": "",
          "type": "uint256"
        }
      ],
      "name": "players",
      "outputs": [
        {
          "internalType": "address payable",
          "name": "",
          "type": "address"
        }
      ],
      "stateMutability": "view",
      "type": "function"
    },
    {
      "inputs": [],
      "name": "raffleId",
      "outputs": [
        {
          "internalType": "uint256",
          "name": "",
          "type": "uint256"
        }
      ],
      "stateMutability": "view",
      "type": "function"
    },
    {
      "inputs": [
        {
          "internalType": "address",
          "name": "",
          "type": "address"
        }
      ],
      "name": "winnerClaimed",
      "outputs": [
        {
          "internalType": "bool",
          "name": "",
          "type": "bool"
        }
      ],
      "stateMutability": "view",
      "type": "function"
    },
    {
      "inputs": [
        {
          "internalType": "uint256",
          "name": "",
          "type": "uint256"
        }
      ],
      "name": "winners",
      "outputs": [
        {
          "internalType": "address",
          "name": "",
          "type": "address"
        }
      ],
      "stateMutability": "view",
      "type": "function"
    },
    {
      "inputs": [],
      "name": "getBalance",
      "outputs": [
        {
          "internalType": "uint256",
          "name": "",
          "type": "uint256"
        }
      ],
      "stateMutability": "view",
      "type": "function"
    },
    {
      "inputs": [],
      "name": "getPlayers",
      "outputs": [
        {
          "internalType": "address payable[]",
          "name": "",
          "type": "address[]"
        }
      ],
      "stateMutability": "view",
      "type": "function"
    },
    {
      "inputs": [],
      "name": "enter",
      "outputs": [],
      "stateMutability": "payable",
      "type": "function"
    },
    {
      "inputs": [],
      "name": "pickWinner",
      "outputs": [],
      "stateMutability": "nonpayable",
      "type": "function"
    },
    {
      "inputs": [
        {
          "internalType": "bytes32[]",
          "name": "_merkleProof",
          "type": "bytes32[]"
        },
        {
          "internalType": "uint256",
          "name": "index",
          "type": "uint256"
        }
      ],
      "name": "winnerReward",
      "outputs": [],
      "stateMutability": "nonpayable",
      "type": "function"
    }
  ],
  "bytecode": "0x608060405234801561001057600080fd5b5033600160006101000a81548173ffffffffffffffffffffffffffffffffffffffff021916908373ffffffffffffffffffffffffffffffffffffffff1602179055506000600481905550611913806100696000396000f3fe6080604052600436106100c25760003560e01c80635d495aea1161007f578063a2fb117511610059578063a2fb11751461026a578063b375603c146102a7578063e97dcb62146102d2578063f71d96cb146102dc576100c2565b80635d495aea146101eb5780638b5b9ccc1461020257806391913e721461022d576100c2565b806312065fe0146100c75780631586af6f146100f25780631911d1761461012f578063490709741461015a578063501895ae146101835780635ca1e165146101c0575b600080fd5b3480156100d357600080fd5b506100dc610319565b6040516100e99190610e36565b60405180910390f35b3480156100fe57600080fd5b5061011960048036038101906101149190610ec3565b610321565b6040516101269190610f0b565b60405180910390f35b34801561013b57600080fd5b50610144610341565b6040516101519190610fee565b60405180910390f35b34801561016657600080fd5b50610181600480360381019061017c91906111c1565b610399565b005b34801561018f57600080fd5b506101aa60048036038101906101a5919061121d565b610547565b6040516101b79190611259565b60405180910390f35b3480156101cc57600080fd5b506101d561056b565b6040516101e29190611259565b60405180910390f35b3480156101f757600080fd5b506102006105a1565b005b34801561020e57600080fd5b506102176108d1565b6040516102249190611344565b60405180910390f35b34801561023957600080fd5b50610254600480360381019061024f9190611429565b61095f565b6040516102619190610fee565b60405180910390f35b34801561027657600080fd5b50610291600480360381019061028c919061121d565b610b52565b60405161029e9190611481565b60405180910390f35b3480156102b357600080fd5b506102bc610b91565b6040516102c99190610e36565b60405180910390f35b6102da610b97565b005b3480156102e857600080fd5b5061030360048036038101906102fe919061121d565b610c0f565b60405161031091906114ab565b60405180910390f35b600047905090565b60056020528060005260406000206000915054906101000a900460ff1681565b6060600080548060200260200160405190810160405280929190818152602001828054801561038f57602002820191906000526020600020905b81548152602001906001019080831161037b575b5050505050905090565b600560003373ffffffffffffffffffffffffffffffffffffffff1673ffffffffffffffffffffffffffffffffffffffff16815260200190815260200160002060009054906101000a900460ff1615610426576040517f08c379a000000000000000000000000000000000000000000000000000000000815260040161041d90611523565b60405180910390fd5b600033604051602001610439919061158b565b6040516020818303038152906040528051906020012090506104648361045d61056b565b8385610c4e565b6104a3576040517f08c379a000000000000000000000000000000000000000000000000000000000815260040161049a906115f2565b60405180910390fd5b3373ffffffffffffffffffffffffffffffffffffffff166108fc479081150290604051600060405180830381858888f193505050501580156104e9573d6000803e3d6000fd5b506001600560003373ffffffffffffffffffffffffffffffffffffffff1673ffffffffffffffffffffffffffffffffffffffff16815260200190815260200160002060006101000a81548160ff021916908315150217905550505050565b6000818154811061055757600080fd5b906000526020600020016000915090505481565b60008060016000805490506105809190611641565b8154811061059157610590611675565b5b9060005260206000200154905090565b600160009054906101000a900473ffffffffffffffffffffffffffffffffffffffff1673ffffffffffffffffffffffffffffffffffffffff163373ffffffffffffffffffffffffffffffffffffffff16146105fb57600080fd5b600060028054905061060b610d21565b61061591906116d3565b9050600560003373ffffffffffffffffffffffffffffffffffffffff1673ffffffffffffffffffffffffffffffffffffffff16815260200190815260200160002060009054906101000a900460ff16156106a4576040517f08c379a000000000000000000000000000000000000000000000000000000000815260040161069b90611776565b60405180910390fd5b6003600282815481106106ba576106b9611675565b5b9060005260206000200160009054906101000a900473ffffffffffffffffffffffffffffffffffffffff169080600181540180825580915050600190039060005260206000200160009091909190916101000a81548173ffffffffffffffffffffffffffffffffffffffff021916908373ffffffffffffffffffffffffffffffffffffffff1602179055506004600081548092919061075890611796565b91905055506107ec60038054806020026020016040519081016040528092919081815260200182805480156107e257602002820191906000526020600020905b8160009054906101000a900473ffffffffffffffffffffffffffffffffffffffff1673ffffffffffffffffffffffffffffffffffffffff1681526020019060010190808311610798575b505050505061095f565b506002818154811061080157610800611675565b5b9060005260206000200160009054906101000a900473ffffffffffffffffffffffffffffffffffffffff1673ffffffffffffffffffffffffffffffffffffffff167fb90c899dfa9ac2adf8782e1328418b0e83e1ed56c4226f6aea6e1ae6024141c360405160405180910390a2600067ffffffffffffffff81111561088957610888611026565b5b6040519080825280602002602001820160405280156108b75781602001602082028036833780820191505090505b50600290805190602001906108cd929190610d76565b5050565b6060600280548060200260200160405190810160405280929190818152602001828054801561095557602002820191906000526020600020905b8160009054906101000a900473ffffffffffffffffffffffffffffffffffffffff1673ffffffffffffffffffffffffffffffffffffffff168152602001906001019080831161090b575b5050505050905090565b606060005b82518110156109e957600083828151811061098257610981611675565b5b602002602001015160405160200161099a919061158b565b60405160208183030381529060405280519060200120908060018154018082558091505060019003906000526020600020016000909190919091505580806109e190611796565b915050610964565b5060008251905060005b6000821115610af85760005b600183610a0c9190611641565b811015610ad5576000808284610a2291906117de565b81548110610a3357610a32611675565b5b9060005260206000200154600060018486610a4e91906117de565b610a5891906117de565b81548110610a6957610a68611675565b5b9060005260206000200154604051602001610a85929190611833565b604051602081830303815290604052805190602001209080600181540180825580915050600190039060005260206000200160009091909190915055600281610ace91906117de565b90506109ff565b508181610ae291906117de565b9050600282610af1919061185f565b91506109f3565b6000805480602002602001604051908101604052809291908181526020018280548015610b4457602002820191906000526020600020905b815481526020019060010190808311610b30575b505050505092505050919050565b60038181548110610b6257600080fd5b906000526020600020016000915054906101000a900473ffffffffffffffffffffffffffffffffffffffff1681565b60045481565b6509184e72a000341015610baa57600080fd5b6002339080600181540180825580915050600190039060005260206000200160009091909190916101000a81548173ffffffffffffffffffffffffffffffffffffffff021916908373ffffffffffffffffffffffffffffffffffffffff160217905550565b60028181548110610c1f57600080fd5b906000526020600020016000915054906101000a900473ffffffffffffffffffffffffffffffffffffffff1681565b60008083905060005b8651811015610d12576000878281518110610c7557610c74611675565b5b602002602001015190506000600286610c8e91906116d3565b03610cc3578281604051602001610ca6929190611833565b604051602081830303815290604052805190602001209250610cef565b8083604051602001610cd6929190611833565b6040516020818303038152906040528051906020012092505b600285610cfc919061185f565b9450508080610d0a90611796565b915050610c57565b50848114915050949350505050565b6000600160009054906101000a900473ffffffffffffffffffffffffffffffffffffffff1642604051602001610d589291906118b1565b6040516020818303038152906040528051906020012060001c905090565b828054828255906000526020600020908101928215610def579160200282015b82811115610dee5782518260006101000a81548173ffffffffffffffffffffffffffffffffffffffff021916908373ffffffffffffffffffffffffffffffffffffffff16021790555091602001919060010190610d96565b5b509050610dfc9190610e00565b5090565b5b80821115610e19576000816000905550600101610e01565b5090565b6000819050919050565b610e3081610e1d565b82525050565b6000602082019050610e4b6000830184610e27565b92915050565b6000604051905090565b600080fd5b600080fd5b600073ffffffffffffffffffffffffffffffffffffffff82169050919050565b6000610e9082610e65565b9050919050565b610ea081610e85565b8114610eab57600080fd5b50565b600081359050610ebd81610e97565b92915050565b600060208284031215610ed957610ed8610e5b565b5b6000610ee784828501610eae565b91505092915050565b60008115159050919050565b610f0581610ef0565b82525050565b6000602082019050610f206000830184610efc565b92915050565b600081519050919050565b600082825260208201905092915050565b6000819050602082019050919050565b6000819050919050565b610f6581610f52565b82525050565b6000610f778383610f5c565b60208301905092915050565b6000602082019050919050565b6000610f9b82610f26565b610fa58185610f31565b9350610fb083610f42565b8060005b83811015610fe1578151610fc88882610f6b565b9750610fd383610f83565b925050600181019050610fb4565b5085935050505092915050565b600060208201905081810360008301526110088184610f90565b905092915050565b600080fd5b6000601f19601f8301169050919050565b7f4e487b7100000000000000000000000000000000000000000000000000000000600052604160045260246000fd5b61105e82611015565b810181811067ffffffffffffffff8211171561107d5761107c611026565b5b80604052505050565b6000611090610e51565b905061109c8282611055565b919050565b600067ffffffffffffffff8211156110bc576110bb611026565b5b602082029050602081019050919050565b600080fd5b6110db81610f52565b81146110e657600080fd5b50565b6000813590506110f8816110d2565b92915050565b600061111161110c846110a1565b611086565b90508083825260208201905060208402830185811115611134576111336110cd565b5b835b8181101561115d578061114988826110e9565b845260208401935050602081019050611136565b5050509392505050565b600082601f83011261117c5761117b611010565b5b813561118c8482602086016110fe565b91505092915050565b61119e81610e1d565b81146111a957600080fd5b50565b6000813590506111bb81611195565b92915050565b600080604083850312156111d8576111d7610e5b565b5b600083013567ffffffffffffffff8111156111f6576111f5610e60565b5b61120285828601611167565b9250506020611213858286016111ac565b9150509250929050565b60006020828403121561123357611232610e5b565b5b6000611241848285016111ac565b91505092915050565b61125381610f52565b82525050565b600060208201905061126e600083018461124a565b92915050565b600081519050919050565b600082825260208201905092915050565b6000819050602082019050919050565b60006112ab82610e65565b9050919050565b6112bb816112a0565b82525050565b60006112cd83836112b2565b60208301905092915050565b6000602082019050919050565b60006112f182611274565b6112fb818561127f565b935061130683611290565b8060005b8381101561133757815161131e88826112c1565b9750611329836112d9565b92505060018101905061130a565b5085935050505092915050565b6000602082019050818103600083015261135e81846112e6565b905092915050565b600067ffffffffffffffff82111561138157611380611026565b5b602082029050602081019050919050565b60006113a56113a084611366565b611086565b905080838252602082019050602084028301858111156113c8576113c76110cd565b5b835b818110156113f157806113dd8882610eae565b8452602084019350506020810190506113ca565b5050509392505050565b600082601f8301126114105761140f611010565b5b8135611420848260208601611392565b91505092915050565b60006020828403121561143f5761143e610e5b565b5b600082013567ffffffffffffffff81111561145d5761145c610e60565b5b611469848285016113fb565b91505092915050565b61147b81610e85565b82525050565b60006020820190506114966000830184611472565b92915050565b6114a5816112a0565b82525050565b60006020820190506114c0600083018461149c565b92915050565b600082825260208201905092915050565b7f4164647265737320616c726561647920636c61696d6564000000000000000000600082015250565b600061150d6017836114c6565b9150611518826114d7565b602082019050919050565b6000602082019050818103600083015261153c81611500565b9050919050565b60008160601b9050919050565b600061155b82611543565b9050919050565b600061156d82611550565b9050919050565b61158561158082610e85565b611562565b82525050565b60006115978284611574565b60148201915081905092915050565b7f496e76616c6964204d65726b6c652050726f6f66000000000000000000000000600082015250565b60006115dc6014836114c6565b91506115e7826115a6565b602082019050919050565b6000602082019050818103600083015261160b816115cf565b9050919050565b7f4e487b7100000000000000000000000000000000000000000000000000000000600052601160045260246000fd5b600061164c82610e1d565b915061165783610e1d565b925082820390508181111561166f5761166e611612565b5b92915050565b7f4e487b7100000000000000000000000000000000000000000000000000000000600052603260045260246000fd5b7f4e487b7100000000000000000000000000000000000000000000000000000000600052601260045260246000fd5b60006116de82610e1d565b91506116e983610e1d565b9250826116f9576116f86116a4565b5b828206905092915050565b7f506c617965722068617320616c726561647920636c61696d656420726577617260008201527f6420210000000000000000000000000000000000000000000000000000000000602082015250565b60006117606023836114c6565b915061176b82611704565b604082019050919050565b6000602082019050818103600083015261178f81611753565b9050919050565b60006117a182610e1d565b91507fffffffffffffffffffffffffffffffffffffffffffffffffffffffffffffffff82036117d3576117d2611612565b5b600182019050919050565b60006117e982610e1d565b91506117f483610e1d565b925082820190508082111561180c5761180b611612565b5b92915050565b6000819050919050565b61182d61182882610f52565b611812565b82525050565b600061183f828561181c565b60208201915061184f828461181c565b6020820191508190509392505050565b600061186a82610e1d565b915061187583610e1d565b925082611885576118846116a4565b5b828204905092915050565b6000819050919050565b6118ab6118a682610e1d565b611890565b82525050565b60006118bd8285611574565b6014820191506118cd828461189a565b602082019150819050939250505056fea26469706673582212208226a552988432dbe0d8b53e56d401fec6a4bfad6a9f8081bbc04ab8d454b94864736f6c63430008100033",
  "immutableReferences": {},
  "source": "// SPDX-License-Identifier: MIT\r\n\r\npragma solidity ^0.8.16;\r\n\r\nimport \"@openzeppelin/contracts/utils/cryptography/MerkleProof.sol\";\r\nimport \"./Merkle Tree/MerkleTree.sol\";\r\n\r\ncontract Raffle is MerkleTree {\r\n  address owner;\r\n  address payable[] public players;\r\n  address[] public winners;\r\n  uint public raffleId;\r\n\r\n  mapping(address => bool) public winnerClaimed;\r\n\r\n  event getWinner(address indexed winner);\r\n\r\n  constructor() {\r\n    owner = msg.sender;\r\n    raffleId = 0;\r\n  }\r\n\r\n  modifier onlyOwner() {\r\n    require(msg.sender == owner);\r\n    _;\r\n  }\r\n\r\n  function getBalance() public view returns (uint) {\r\n    return address(this).balance;\r\n  }\r\n\r\n  function getPlayers() public view returns(address payable[] memory) {\r\n    return players;\r\n  }\r\n\r\n  function enter() public payable {\r\n    require(msg.value >= 0.00001 ether);\r\n\r\n    // dia chi cua nhung nguoi tham gia\r\n    players.push(payable(msg.sender));\r\n  }\r\n\r\n  function getRandomNumber() internal view returns (uint) {\r\n    return uint(keccak256(abi.encodePacked(owner, block.timestamp)));\r\n  }\r\n\r\n  function pickWinner() public onlyOwner {\r\n    uint randomIndex = getRandomNumber() % players.length;\r\n    require(!winnerClaimed[msg.sender], \"Player has already claimed reward !\");\r\n    // players[randomIndex].transfer(address(this).balance);\r\n    winners.push(payable(players[randomIndex]));\r\n    raffleId++;\r\n\r\n    createTree(winners);\r\n    \r\n    emit getWinner(players[randomIndex]);\r\n\r\n    players = new address payable[](0);\r\n  }\r\n\r\n  function winnerReward(bytes32[] memory _merkleProof, uint256 index) external {\r\n\r\n    // Nhung nguoi da nhan roi se khong duoc nhan them\r\n    require(!winnerClaimed[msg.sender], \"Address already claimed\");\r\n    bytes32 leaf = keccak256(abi.encodePacked(msg.sender));\r\n    \r\n    // Xac thuc lai nut\r\n    require(verify(_merkleProof, getRoot(), leaf, index), \"Invalid Merkle Proof\");\r\n\r\n    // Tra thuong\r\n    (payable (msg.sender)).transfer(address(this).balance);\r\n\r\n    winnerClaimed[msg.sender] = true;\r\n  }\r\n}\r\n\r\n",
  "sourcePath": "D:\\WorkSpace\\Jobs\\MerkleTreeDemo\\contracts\\Raffle.sol",
  "compiler": {
    "name": "solc",
    "version": "0.8.16+commit.07a7930e.Emscripten.clang"
  },
  "schemaVersion": "3.4.9",
  "updatedAt": "2023-02-06T02:22:36.761Z",
  "devdoc": {
    "kind": "dev",
    "methods": {},
    "version": 1
  },
  "userdoc": {
    "kind": "user",
    "methods": {},
    "version": 1
  }
}